:020000040800F2
:10000000542B0020DD0100089F340008E52A000879
:100010009D340008130A0008213A0008000000007F
:100020000000000000000000000000004501000882
:100030006D0C00080000000089010008A1340008D0
:10004000F7010008F7010008F7010008F7010008B0
:10005000F7010008F7010008F7010008F7010008A0
:10006000F7010008F7010008F7010008F701000890
:10007000F7010008F7010008F7010008F701000880
:10008000F7010008F7010008F7010008F701000870
:10009000F7010008F7010008F7010008F701000860
:1000A000F7010008F7010008F7010008F701000850
:1000B000F7010008F70100081D350008F7010008E6
:1000C000F7010008F7010008F7010008F701000830
:1000D000F7010008F7010008093A0008153A00087E
:1000E000F7010008F7010008F7010008F701000810
:1000F000F7010008F7010008F7010008F701000800
:10010000F7010008F7010008F7010008F7010008EF
:10011000F7010008F7010008F7010008F7010008DF
:10012000F7010008F7010008F7010008F7010008CF
:10013000DFF80CD000F044FB00480047E94C000811
:10014000542B0020224B19680868B0E8F00F80F3A8
:100150000988BFF36F8F4FF0000080F311884EF0D5
:100160000D0E70470000000006480068006880F32C
:10017000088862B661B6BFF34F8FBFF36F8F00DFA1
:1001800000BF00BF08ED00E0EFF30980BFF36F8F01
:100190000F4B1A6820E9F00F106008B54FF05000BF
:1001A00080F31188BFF34F8FBFF36F8F06F094FA7F
:1001B0004FF0000080F31188BDE808401968086816
:1001C000B0E8F00F80F30988BFF36F8F704700BF6E
:1001D00050000020EFF3058070470000064880477C
:1001E00006480047FEE7FEE7FEE7FEE7FEE7FEE71C
:1001F000FEE7FEE7FEE7FEE71B35000831010008D9
:100200002DE9F0410024061B254671F1000605DAB0
:1002100001240027D0EB070067EB0101161E73F1E4
:10022000000605DA0027D2EB0702012567EB03037E
:1002300000F0A5F886460E4617469C46AC4204D010
:100240000025D0EB050E65EB010624B10020D2EBB2
:10025000000760EB030C704631463A466346BDE842
:10026000F081202A04DB203A21FA02F000217047B5
:1002700021FA02F3D040C2F120029140084319460E
:10028000704740EA01039B0703D009E008C9121F29
:1002900008C0042AFAD203E011F8013B00F8013B40
:1002A000521EF9D27047D2B201E000F8012B491E6C
:1002B000FBD270470022F6E710B513460A46044603
:1002C0001946FFF7F0FF204610BD421C10F8011B35
:1002D0000029FBD1801A704710B5002200E0521CA3
:1002E000835C8C5CA34201D1002BF8D1D8B2E1B27F
:1002F000401A10BD70B50F4D00B92868002412E0F7
:100300000A4602E09E4203D0521C1378002BF9D11A
:10031000DAB2224305D02BB124B1002100F8011B31
:1003200004E00446401C0678002EE9D128602046EF
:1003300070BD0000E400002070B5064603F0E8FB45
:10034000046805460A220021304600F049F82C6076
:1003500070BD30B50B46014600202022012409E083
:1003600021FA02F59D4205D303FA02F5491B04FA6E
:1003700002F52844151EA2F10102F1DC30BD2DE981
:10038000F05F0546002092469B4688460646814619
:1003900040241BE02846414647462246FFF761FFBE
:1003A00053465A46C01A914110D311461846224668
:1003B00000F018FA2D1A67EB01084F46224601207B
:1003C000002100F00FFA17EB00094E41201EA4F1A6
:1003D0000104DFDC484631462A464346BDE8F09F2B
:1003E0002DE9F04791460F4680460446002614F852
:1003F000015B2DB100F018FA0068405DC007F6D12E
:100400002B2D02D02D2D18D0641E4A463946204689
:1004100000F00EFA27B13968A14201D1C7F8008077
:1004200071054FF002040BD54042002803DD03F0B4
:100430006FFB0460A007BDE8F08746F48066E4E740
:100440000028F8DA03F064FB04606FF00040F2E784
:100450002DE9FE4F804681EA0300C00F0C46009054
:1004600021F0004123F00045B8EB0200A94105D27C
:100470004046214690461C460B46024623F000406B
:10048000104347D0270DC7F30A00C3F30A51029067
:10049000401A019040286BDAC3F3130040F4801B2C
:1004A0000098924620B10023D2EB030A63EB0B0BBA
:1004B00001985946C0F14002504600F093F90646B3
:1004C0000D4650465946019A00F09BF910EB080082
:1004D0006141002487EA115284EAE7731A4340D04D
:1004E000009A62B3019A012A4FEA075215DC001BF9
:1004F00061EB02014FF0004202EA0752CDE90042EF
:10050000001C41F5801132462B4600F0EFF903B094
:10051000BDE8F08F40462146F9E7001B61EB020180
:10052000001C41F5801300185B412018A2F500174C
:1005300047EB030140EAD570B6196D4111E06D0833
:100540004FEA360645EAC0754FEA0752001B61EBD9
:100550000201001C41F5801149084FEA30000019E2
:10056000514132462B4603B0BDE8F04F00F0AFB921
:100570000098012240000023D0EB020263EBE073FD
:10058000009821464FEAE074B8EB000061EB0401EB
:10059000E9E783F000435BE781F0004158E72DE98C
:1005A000FE4F81EA030404F0004421F0004100946E
:1005B0004FF0000B23F0004350EA01045ED052EAF2
:1005C00003045BD0C3F30A54C1F30A552C44A4F2CC
:1005D000F3340194A0FB0254C1F3130141F48011E0
:1005E000C3F3130343F4801301FB024400FB034EE7
:1005F000840A970A44EA815447EA8357A4FB0768B0
:1006000002958D0A05FB07854FEA932C04FB0C54D9
:100610002705029D4FEA065847EA1637B5EB08054D
:100620006EEB070C870E920E47EA811742EA83129F
:10063000A7FB0201B6EB0B0164EB00042B0D43EAB0
:100640000C335E1844EB1C50DA465146E7FB0201BE
:10065000C5F313044FEA0B3343EA14534FEA043251
:10066000019C43EA0603A4F10C040294009CCDE92A
:1006700000B400F03BF903B0BDE8F08F0020014664
:10068000F9E72DE9F04D81EA030404F0004B21F075
:10069000004514464FF0000A23F0004150EA0502DD
:1006A00020D054EA01021DD0C5F30A570246C5F313
:1006B0001303C1F31300C1F30A5640F4801543F449
:1006C0008013A7EB0608101BD64608F2FD3873EB23
:1006D000050002D308F1010801E092185B41B8F16E
:1006E000000F03DA00200146BDE8F08D00204FF432
:1006F0008011064684460EE0171B73EB050705D3F1
:10070000121B63EB050306434CEA010C49084FEA50
:10071000300092185B4150EA0107EDD152EA030024
:1007200012D082EA040083EA0501084305D0101BB9
:10073000AB4106D20122002306E000224FF0004325
:1007400002E06FF0010253101AEB06004CEB085167
:1007500010EB0A0041EB0B01BDE8F04D00F0B7B81B
:10076000C1F30A52C1F3130140F2FF3341F4801187
:100770009A4202DA00200146704740F233439A421F
:10078000A2F2334202DC5242FFF76BBD00F02AB8FE
:1007900030B5041E71F1000404DB4FF00044404208
:1007A00064EB0101141E73F1000405DB1C464FF0DD
:1007B0000043524263EB0403994208BF904230BDAC
:1007C000064C074D06E0E06840F0010394E807009E
:1007D00098471034AC42F6D3FFF7AEFC0077000820
:1007E00020770008202A04DB203A00FA02F10020DA
:1007F00070479140C2F1200320FA03F3194390405F
:100800007047202A06DBCB17203A41FA02F043EA70
:10081000E07306E041FA02F3D040C2F120029140B9
:10082000084319467047000000487047D07500081B
:100830002DE9F05F82460078002715468B460AF1C5
:100840000104B946302801D09DB113E014F8010B22
:100850000127782803D0582801D045B10AE00DB10E
:10086000102D07D10027102514F8010B02E00825F0
:1008700000E00A250026B0460EE005FB080005FB57
:1008800006F1012701EB10461FFA80F8B6F5803F0C
:1008900000D3B94614F8010B294600F075F800287A
:1008A000EBDABBF1000F05D00FB1641E00E0544637
:1008B000CBF80040B9F1000F06D003F029F902216E
:1008C0000160C81EBDE8F09F48EA0640FAE710B58F
:1008D000141E73F1000408DA401C41F10001921863
:1008E0005B411A4301D120F0010010BD2DE9F04D0C
:1008F00092469B4611B1B1FA81F202E0B0FA80F261
:1009000020329046FFF76EFF04460F4640EA0A0089
:1009100041EA0B0153465A46084313D0114653EAA5
:10092000010019D0C8F140025046FFF79AFC054675
:100930000E46504659464246FFF754FF084305D03D
:10094000012004E020463946BDE8F08D0020054333
:1009500046EAE0762C4337430A986305E40AA0EBA5
:1009600008000022FD0A44EA47540A3002D500205C
:100970000146E9E7010510196941DDE9084500195B
:100980006941BDE8F04DA2E73A2800D2303820F0A6
:100990002002412A01D3A2F13700884201D34FF04F
:1009A000FF3070470149486070470000D4000020C4
:1009B0000EB54FF47A738DE80E0002460548022307
:1009C0000178406800F0C2FDBDE80E40052000F04F
:1009D0001BBA0000D40000200EB54FF47A738DE8E6
:1009E0000E000246054802230178406800F0D6FE5A
:1009F000BDE80E400A2000F007BA0000D400002035
:100A000000F00F01000900EB800001EB4000C0B2D4
:100A10007047FEE7F8B51A4C1A4E4FF00A052068E9
:100A2000401E20606168491C6160317808430AD12A
:100A3000002300951A460321206906F097FC412106
:100A4000A06905F0A5FE206848B106F0F3FA024659
:100A5000009500230121206906F088FCF8BD30785C
:100A60000228FBD1002300951A460321206906F0D5
:100A70007DFCA069BDE8F840482105F089BE000072
:100A800004000020000000200A21B0FBF1F201FB6D
:100A90001202B0FBF1F042EA0010C0B270470368E6
:100AA00000221B685A6200680068426A8A42FCD3CE
:100AB000704730B482608380016030BC084601F02A
:100AC00039BB2DE9F0410746002500F057F8002416
:100AD0000126384600F061F80021384600F0C0F8E1
:100AE00001213846FFF7DBFF384600F047F838466B
:100AF00000F00FF818B106FA04F02843C5B232210D
:100B00003846FFF7CCFF641C082CE2DB2846BDE822
:100B1000F0818188806800F085BA70B5044600F0E5
:100B20004DF80121204600F0A2F8CC21204600F02B
:100B300066F84421204600F062F8C821204600F003
:100B400096F8204600F03AF80121204600F08FF890
:100B5000CC21204600F053F8BE21204600F04FF88B
:100B60002046FFF7AEFF05462046FFF7AAFF45EAFD
:100B700000200F21B0FBF1F0A08170BD1FB5002156
:100B800000910191029103918188009101210291CC
:100B90008068694600F04AF91FBD1FB50021009129
:100BA000019102910391818800910121019102211B
:100BB00003918068694600F039F91FBD70B506469B
:100BC0000024FFF7EAFF0021304600F049F84FF417
:100BD000F07529463046FFF762FF3046FFF7CEFF3B
:100BE00050213046FFF75BFF3046FFF792FF00B918
:100BF000012429463046FFF752FF204670BD2DE9FB
:100C0000F0410E460746FFF7C8FF0024012505FA0C
:100C100004F03042384611D0FFF7BFFF00213846BC
:100C200000F01EF801213846FFF739FF3846FFF77C
:100C3000A5FF32213846FFF732FF0CE0FFF7ADFF8A
:100C40000021384600F00CF832213846FFF727FF24
:100C50003846FFF793FF641C082CD8DBBDE8F08111
:100C600083880A468068194600F0E9B9704730B5B4
:100C700000244FF47A7307E0026812685462026835
:100C80001268556A9D42FCD3491E89B2F4D230BD28
:100C9000704710B590F821100022022905D00421D8
:100CA000816380F82020012010BD01680B6823F0CB
:100CB0000E030B6001680B6823F001030B6090F8D2
:100CC0004030C46B012101FA03F3636080F8211006
:100CD00080F82020104610BD2DE9F05F90F821101B
:100CE0000024022903D004218163012485E00168E6
:100CF0000A6822F00E020A6001680A6822F0010206
:100D00000A603F4E3E4FB215DFF8F4C0DFF8F090B6
:100D1000DFF8ECA0DFF8E8B0DFF8E4E00168783F46
:100D200013011502ACF1640CA9F15009AAF13C0AB7
:100D3000ABF1280BAEF1140E4FF48018B14227D955
:100D4000B9420ED0614512D049451DD0514518D049
:100D5000594518D0714501D1424615E0294EB1429E
:100D600001D1012210E0274E1436B14201D11022E8
:100D70000AE0244E2836B14206D0224A3C32914243
:100D800001D11A4600E02A461E49091F0A602BE0DD
:100D9000B94213D0614517D0494522D051451DD0E5
:100DA00059451DD0714501D142461AE0B14202D1E8
:100DB0004FF0807215E0134EB14201D1012210E0D4
:100DC000104E1436B14201D110220AE00D4E2836E1
:100DD000B14206D00B4A3C32914201D11A4600E0A2
:100DE0002A46074980394A60012180F821100021F4
:100DF00080F82010416B01B188472046BDE8F09F84
:100E0000800002400804024070B5044600F01CF95E
:100E10000546601C02D004480078044400F014F930
:100E2000401BA042FAD370BD400000202DE9F84FCE
:100E3000DFF8C891002409F1040A0AF1040B2346E3
:100E40000F270BF1040ED1E00125A54006EA0502AB
:100E5000AA4276D1DFF8A8C14E68A6EB0C08664519
:100E60002BD00DDC032E34D005DC36B3012E19D087
:100E7000022E2FD11BE0112E16D0122E2AD119E0EE
:100E8000B8F5881F19D006DCB8F5803F15D0B8F545
:100E9000801F1FD111E0B8F5001F0ED0B8F5041F58
:100EA00018D10AE0CB6815E0CB681B1D12E0CB68B7
:100EB00008330FE0CB680C330CE08B682BB1012BAF
:100EC0004FF0080303D0456104E0042302E005610C
:100ED00000E00023FF2A01D8064601E000F10406E5
:100EE0004FEA840501D9A5F12005D6F8008007FA5C
:100EF00005FC28EA0C0803FA05F548EA0508C6F8D7
:100F000000804D68ED0070D53E4DAE6946F001069B
:100F1000AE61AD6924F0030605F0010500953A4D78
:100F200006EB050CDCF80850A607360F07FA06F8A2
:100F300025EA0805DFF8D480404503D14FF00008CA
:100F400025E052E0DFF8C880404502D14FF00108AB
:100F50001DE0DFF8C080404502D14FF0020816E0E6
:100F6000DFF8B480404502D14FF003080FE0DFF80E
:100F7000AC80404502D14FF0040808E0DFF8A080C3
:100F8000404502D14FF0050801E04FF0060808FA8D
:100F900006F848EA0508CCF808804D68D9F80060E2
:100FA000ED034D4601D5164300E096432E604D6893
:100FB000DAF80060AD03554601D5164300E09643CC
:100FC0002E604D68DBF80060ED025D4601D51643EA
:100FD00000E096432E604D68DEF80060AD02754675
:100FE00001D5164300E096432E60641C0A6816463D
:100FF000E2407FF429AFBDE8F88F00000004014013
:1010000000001110001002400000014000080140E3
:10101000000C014000100140001401400018014084
:10102000001C01408068084000D001207047C26861
:1010300021EA02030A4043EA0241016170470AB112
:10104000016170470904FBE70148806870470000B0
:101050004000002070B5040025D094F83D00002524
:1010600020B984F83C50204600F030FC242084F85D
:101070003D002068016821F00101016020680168DD
:1010800041F4004101602068016821F400410160E1
:1010900000F0B2FD4D4A6168914201D84C4900E030
:1010A0004C49884201D2012070BD4B492368B0FBF6
:1010B000F1F15E6826F03F060E435E60636893427E
:1010C00006D94FF4967359434FF47A73B1FBF3F199
:1010D0002368491C1E6A26F03F0631431962616885
:1010E000914210D84900401EB0FBF1F2521CC2F3ED
:1010F0000B02042A01D2042022E0B0FBF1F0401CD4
:10110000C0F30B001CE0A268F2B301EBC10303EBD8
:101110000116431EB3FBF6F35B1C43F480431B052F
:1011200049D092B301EBC10202EB0111401EB0FBAA
:10113000F1F0401CC0F30B0040F4804040F400404C
:101140002168CA694CF6FF739A431043C861D4E919
:10115000071001432068026822F0C00211430160B9
:10116000D4E9030101432068826848F2FF339A43BF
:1011700011438160D4E9050108432168CA6822F05F
:10118000FF021043C86001E00EE016E0206801682D
:1011900041F0010101602564202084F83D002563B1
:1011A00084F83E50002070BD01EB4106431EB3FBA6
:1011B000F6F35B1CB3E70120C2E701EB4101401EDF
:1011C000B0FBF1F0401CC0F30B00B7E7A0860100B4
:1011D00080841E0000093D0040420F002DE9F84FB9
:1011E0000025DDF82890984617468A460446009563
:1011F000FFF72AFF064694F83D0020287AD11923EC
:10120000012283492046009601F040FE0028F5D1D6
:1012100094F83C0001286DD0012084F83C0020683F
:101220000168C90703D1016841F00101016020682C
:10123000016821F400610160222084F83D00102043
:1012400084F83E0025646762A4F82A80608D2085BA
:101250007048E06233464A465146204601F05AFC47
:1012600000287DD1208DDFF8B081202768B10128CA
:1012700014D00228206801681ED041F4806101600A
:101280002068416980690090B5E020684169816902
:101290000091016841F400710160ACE020680168D0
:1012A00021F48061016072B6206841698169009112
:1012B000016841F400710AE041F40061016072B616
:1012C0002068416981690091016821F480610160B1
:1012D00062B690E0032868D801280CD002284B465B
:1012E0004FF000024146204600960FD001F0CEFD9F
:1012F000B0BB10E08AE032464946204601F045FE88
:1013000070BB20680069616A08706BE001F0BEFD87
:1013100030BB72B634E02068016821F4806101605E
:1013200072B620680069616A0870606A401C606279
:10133000208D401E2085608D401E6085374846F216
:10134000A8110068B0FBF1F0C0EBC00000EB80001A
:101350000090401E009008D020684069C04300E023
:1013600029E040070CD50098F3E744F8305F677335
:10137000A573206940F02000206162B625731AE051
:101380002068016841F40071016020680069616AA9
:101390000870606A401C6062218D491E2185618D44
:1013A000491E618562B621681AE0324649462046E8
:1013B00001F0EBFD10B10120BDE8F88F2068006955
:1013C000616A0870606A401C6062218D491E218537
:1013D000618D491E618521684A69D24352070AD44A
:1013E00009690170606A401C6062208D401E208582
:1013F000608D401E6085208D00287FF46BAF84F8DF
:101400003D7084F83E5084F83C50D5E70220D3E785
:10141000020010000000FFFF040001004C0000204B
:101420002DE9F84F1F4690468A460446DDF828907D
:10143000FFF70AFE054694F83D0020287FD11923C6
:10144000012240492046009501F020FD002876D178
:1014500094F83C00012872D0012084F83C002068F8
:101460000168C90703D1016841F0010101602068EA
:10147000016821F400610160212084F83D00102002
:1014800084F83E0000262664C4F824806785608DB9
:1014900020852D48E0622B464A465146204601F001
:1014A000AFFB90B9206841698069009036E02A4618
:1014B0004946204601F09CFD50B1206C042804D11F
:1014C0002068016841F4007101600120BDE8F88FD7
:1014D000606A216800780861606A401C6062618D02
:1014E000491E6185218D491E89B221852268536973
:1014F000DB435B070BD451B100781061606A401C7C
:101500006062608D401E6085208D401E20852A46C9
:101510004946204601F094FC0028CED1208D0028B9
:10152000C5D154F83D0B016841F4007101602020E1
:1015300004F81E09E67766770020C7E7FFE7022078
:10154000C4E70000020010000000FFFF2DE9FF4F7C
:1015500083B00025DDE910799A4693460446DDF80C
:1015600048800095FFF770FD064694F83D0020285E
:101570007CD11923012285492046009601F086FC82
:101580000028F5D194F83C0001286FD0012084F8A0
:101590003C0020680168C90703D1016841F00101DE
:1015A00001602068016821F400610160222084F854
:1015B0003D00402084F83E0025646762A4F82A902C
:1015C000608D20857248E062CDE9008653465A4618
:1015D0002046049901F062FB00287DD1208DDFF8C0
:1015E000B491202768B1012814D00228206801682E
:1015F0001ED041F4806101602068416980690090DB
:10160000B6E02068416981690091016841F4007188
:101610000160ADE02068016821F48061016072B66C
:101620002068416981690091016841F400710AE014
:1016300041F40061016072B62068416981690091DE
:10164000016821F48061016062B691E0032868D8E6
:1016500001280CD0022843464FF00002494620469C
:1016600000960FD001F012FCB0BB10E08BE03246C8
:101670004146204601F089FC70BB20680069616A20
:1016800008706CE001F002FC30BB72B634E02068F8
:10169000016821F48061016072B620680069616AA6
:1016A0000870606A401C6062208D401E2085608D3D
:1016B000401E6085384846F2A8110068B0FBF1F082
:1016C000C0EBC00000EB80000090401E009008D0EE
:1016D00020684069C04300E029E040070CD500982D
:1016E000F3E744F8305F6773A573206940F020008A
:1016F000206162B625731AE02068016841F4007128
:10170000016020680069616A0870606A401C60625C
:10171000218D491E2185618D491E618562B6216832
:101720001BE032464146204601F02FFC18B1012053
:1017300007B0BDE8F08F20680069616A0870606AD0
:10174000401C6062218D491E2185618D491E618585
:1017500021684A69D24352070AD409690170606A54
:10176000401C6062208D401E2085608D401E60857B
:10177000208D00287FF46AAF84F83D7084F83E50D5
:1017800084F83C50D4E70220D2E7000002001000A9
:101790000000FFFF040001004C0000202DE9FF4F76
:1017A00083B09A46DDE9119793460446DDF8408000
:1017B000FFF74AFC054694F83D0020287FD1192305
:1017C000012240492046009501F060FB002876D1B7
:1017D00094F83C00012872D0012084F83C00206875
:1017E0000168C90703D1016841F001010160206867
:1017F000016821F400610160212084F83D0040204F
:1018000084F83E0000262664C4F82480A4F82A90B8
:10181000608D20852C48E062CDE9007553465A461C
:101820002046049901F0B8FA70B930E02A463946EA
:10183000204601F0DDFB58B1206C042804D120685B
:10184000016841F400710160012007B0BDE8F08F2C
:10185000606A216800780861606A401C6062218DBE
:10186000491E89B22185628D521E628522685369A4
:10187000DB435B070BD469B100781061606A401CE0
:101880006062208D401E2085608D401E6085208D09
:101890000028CBD12A463946204601F0D1FA00284B
:1018A000CAD154F83D0B016841F400710160202059
:1018B00004F81E09E67766770020C6E7FFE70220F6
:1018C000C3E70000020010000000FFFF10B586B063
:1018D0000021009101910291039100680F49884213
:1018E0001AD10F4CA06940F00800A061A0696946B8
:1018F00000F008000490C020009012200190032006
:1019000003900848FFF792FAE06940F40010E061A4
:10191000E06900F40010049006B010BD00540040CF
:1019200000100240000C0140024881680278114416
:101930008160704740000020074810B5016841F001
:1019400010010160032000F08FF8002000F006F87D
:1019500000F03EF8002010BD0020024000B5014616
:1019600087B000221E2000F05FF81E2000F04EF825
:101970001348C16941F00401C161C06905A900F0C3
:1019800004000690684600F017F900F035F90D499B
:101990004000B0FBF1F10D480B4A491E0260416066
:1019A00040F2E7320021C0E90321816000F074FBBE
:1019B00010B1012007B000BD044800F0EDFBF9E7CD
:1019C0000010024040420F0000080040280900209B
:1019D0000C4808B5816941F001018161816901F01C
:1019E00001010091C16941F08051C161C06900F0FD
:1019F000805000900448416821F0E06141F000719E
:101A0000416008BD0010024000000140002809DBD1
:101A100000F01F02012191404009800000F1E02008
:101A2000C0F8001170470000F0B40E4B1B680C4664
:101A3000C3F30223C3F10705042D00D90425191DA2
:101A4000072901D2002300E0DB1E012606FA05F17A
:101A5000491E214099409E40761E16403143F0BCFD
:101A600002F046B80CED00E0064900F007020868F5
:101A70004FF6FF03184040EA0220034A1043086073
:101A8000704700000CED00E00000FA052DE9F0477A
:101A90000F46050061D0434E306800F00700B842A1
:101AA00009D2306820F0070038433060306800F019
:101AB0000700B84251D128683B4C810712D5400736
:101AC00003D5606840F4E06060602878000703D5C3
:101AD000606840F4605060606068A96820F0F000C1
:101AE000084360602878C00728D06868012810D0B3
:101AF0002168022810D0890700292EDA616821F0B8
:101B0000030101436160FFF79FFA804641F2883983
:101B10000DE021688903EFE78901EDE7FFF794FA0B
:101B2000A0EB0801494502D90320BDE8F0876068B1
:101B3000696800F00C00B0EB810FEFD1306800F065
:101B40000700B8420BD9306820F0070038433060F6
:101B5000306800F00700B84201D00120E5E728789E
:101B6000400705D56068E96820F4E06008436060DC
:101B70002878000706D56068296920F4605040EA9B
:101B8000C100606000F058F86168084AC1F30311B1
:101B9000515CC8400649086006480068FFF7DEFE51
:101BA0000020C2E70020024000100240DC74000860
:101BB0004C000020440000200F2202600C4A5368B1
:101BC00003F003034360536803F0F003836053683A
:101BD00003F4E063C36052684FF4E06303EAD202A7
:101BE00002610448006800F00700086070470000C8
:101BF000001002400020024004480549006849687E
:101C0000044AC1F30221515CC84070474C000020D7
:101C100000100240EC740008044805490068496857
:101C2000044AC1F3C221515CC84070474C000020F7
:101C300000100240EC74000812A185B00FC98DE8B5
:101C40000F0014A0144A006804905168134801F072
:101C50000C03042B10D0082B0ED1C1F38343C9030E
:101C60001DF803000AD5516804AAC1F34041515C34
:101C70000A4A5043B0FBF1F005B0704708494843A9
:101C8000FAE7000002030405060708090A0B0C0D19
:101C90000E0F1010010200000010024000127A0026
:101CA00000093D002DE9F84F040070D02078C04DA8
:101CB000C00749D06868C0F38100012807D0686870
:101CC000C0F38100022809D16868C00306D52868DE
:101CD000800339D560680028E7D035E06068B0F54A
:101CE000803F0BD010B1B0F5A02F11D0286820F4A0
:101CF00080302860286820F4802002E0286840F4C2
:101D000080302860606890B1FFF79EF906460AE0CF
:101D1000286840F480202860F0E700BFFFF794F9BE
:101D2000801B642873D828688003F7D50CE0FFF780
:101D30008BF9064605E000BFFFF786F9801B642893
:101D4000F0D828688003F7D420789A4E80074FF0A7
:101D500001094FF0000839D5686810F00C0F07D062
:101D60006868C0F38100022809D16868C00306D4FE
:101D70002868800714D52069012808D110E020695F
:101D8000B0B1C6F80090FFF75FF9074605E00AE139
:101D9000FFF75AF9C01B0228C4D828688007F7D576
:101DA0002868616920F0F80040EAC10028600DE071
:101DB000C6F80080FFF748F9074604E0FFF744F94A
:101DC000C01B022823D828688007F7D42078000792
:101DD0002CD57948A169D9B1C0F80090FFF734F942
:101DE000074604E0FFF730F9C01B02280FD8686AE5
:101DF0008007F7D571484FF4FA510068B0FBF1F055
:101E0000009000BF0098411E0091FAD20EE080E0E1
:101E1000C0F80080FFF718F9074604E0FFF714F94F
:101E2000C01B022875D8686A8007F7D4207840075D
:101E300060D5E8690027C00008D4E86940F0805008
:101E4000E861E869012700F0805000905C48016873
:101E5000C90513D40168834641F480710160FFF71E
:101E6000F3F8824606E000BFFFF7EEF8A0EB0A00A9
:101E700064284ED8DBF80000C005F5D5E0680128DD
:101E80000AD008B1052813D0286A20F00100286282
:101E9000286A20F0040002E0286A40F0010028626D
:101EA000E06841F2883B98B1FFF7CEF882460BE03C
:101EB000286A40F004002862EEE700BFFFF7C4F88C
:101EC000A0EB0A0159455AD8286A8007F6D50CE0DC
:101ED000FFF7BAF8824605E0FFF7B6F8A0EB0A0173
:101EE00059454CD8286A8007F6D41FB1E86920F01C
:101EF0008050E861E06988B36968C1F38101022913
:101F000044D00228C6F8608004D0FFF79DF804464C
:101F100038E034E0FFF798F8074604E0FFF794F85C
:101F2000C01B02282BD828688001F7D4206AB0F59E
:101F3000803F05D16868A16820F4003008436860DC
:101F4000D4E908010843696821F474110843686002
:101F5000C6F86090FFF778F8044606E025E000BF79
:101F6000FFF772F8001B022809D828688001F7D50E
:101F70001BE000BFFFF768F8001B022802D903200E
:101F8000BDE8F88F28688001F4D40EE00128F7D06E
:101F90006868226A00F48031914204D1616A00F4D9
:101FA0007010884201D00120EAE70020E8E7000035
:101FB0000010024000004242800442424C000020D7
:101FC000007000407047704710B590F83C20012A1F
:101FD00022D0012280F83C20CA688C6822F440722A
:101FE00022434C6822F4806222430C6822F400628F
:101FF00022430C6922F4805222434C6922F400529D
:102000002243C969002322F480420A4301684A64DA
:1020100080F83C30002010BD022010BD70B590F853
:102020003C20012A2CD0012480F83C40022280F878
:102030003D2003685A689D6822F070060A683243A2
:102040005A60104B02689A420ED00F4B9A420BD046
:10205000B2F1804F08D00D4B9A4205D00C4B9A42FA
:1020600002D00C4B9A4204D1496825F080031943F1
:10207000916080F83D40002180F83C10084670BD1A
:10208000022070BD002C01400034014000040040DB
:1020900000080040000C004010B5040003D094F884
:1020A0003D0010B107E0012010BD002084F83C0085
:1020B000204600F01FF8022084F83D00211D206812
:1020C00001F032FA012084F8460084F83E0084F8DA
:1020D0003F0084F8400084F8410084F8420084F80E
:1020E000430084F8440084F8450084F83D00002053
:1020F00010BD000008B50C4A01680C48914207D198
:10210000816941F400618161806900F4006009E047
:10211000074A914207D1C16941F00201C161C0691A
:1021200000F00200009008BD002C014000100240A9
:102130000004004090F83D10012901D001207047B3
:10214000022180F83D1000680E4988420ED00E49E9
:1021500088420BD0B0F1804F08D00C49884205D09E
:102160000B49884202D00B49884204D1816801F0B2
:102170000701062903D0016841F001010160002038
:1021800070470000002C0140003401400004004072
:1021900000080040000C004090F83D10012901D0DB
:1021A00001207047022180F83D100168CA6842F0A2
:1021B0000102CA6000680E4988420ED00D4988426B
:1021C0000BD0B0F1804F08D00B49884205D00B49A5
:1021D000884202D00A49884204D1816801F007018F
:1021E000062903D0016841F0010101600020704719
:1021F000002C014000340140000400400008004071
:10220000000C004070B5044690F83C00012817D03F
:10221000012584F83C50022084F83D002068826843
:1022200022F0770222F47F4282600868502830D082
:102230000DDC20284DD005DC98B310283BD148E0B8
:10224000022070BD302844D0402834D139E06028C5
:1022500028D0702806D0B0F5805F2CD0B0F5005F94
:1022600029D10AE0CB68D1E90121206801F0AFF95A
:102270002068816841F0770109E0CB68D1E901214C
:10228000206801F0A4F92068816841F480418160F0
:1022900011E0CA684968206801F06EFA5021206890
:1022A00007E016E0CA684968206801F076FA602104
:1022B000206801F096F984F83D50002084F83C0035
:1022C00070BDCA684968206801F056FA402120684C
:1022D000EFE7226801461046EBE7704770B5044609
:1022E000006801694FF00005C943890715D4C1682A
:1022F000C943890711D4E91E0161012020772068B4
:1023000080698007204602D0FFF7E7FF04E000F075
:10231000BFF8204600F04EF9257720680169C943CF
:10232000490717D4C168C943490713D46FF00401A2
:102330000161022020772068806910F4407F2046E8
:1023400002D0FFF7CAFF04E000F0A2F8204600F038
:1023500031F9257720680169C943090716D4C16896
:10236000C943090712D46FF00801016104202077E6
:102370002068C0698007204602D0FFF7AEFF04E066
:1023800000F086F8204600F015F9257720680169ED
:10239000C943C90617D4C168C943C90613D46FF02D
:1023A00010010161082020772068C06910F4407F87
:1023B000204602D0FFF791FF04E000F069F82046C4
:1023C00000F0F8F8257720680169C943C90708D1EA
:1023D000C168C943C90704D1891E0161204600F0C4
:1023E00045F920680169C943090609D4C168C94390
:1023F000090605D46FF0800101612046FFF7E2FD78
:1024000020680169C943490609D4C168C94349061E
:1024100005D46FF040010161204600F031F92068D9
:102420000169C94389060BD4C168C943890607D429
:102430006FF0200101612046BDE87040FFF7C3BD89
:1024400070BD000000B585B000210091019102919E
:10245000039100680B49884212D10B48816941F011
:10246000040181618069694600F0040004904FF422
:10247000E06000900220019003900448FEF7D6FC33
:1024800005B000BD002C01400010024000080140D2
:10249000704770B5044690F83C000D4601280AD0FC
:1024A000012084F83C0042B1042A18D0082A2AD01E
:1024B0000C2A4DD139E0022070BD206801F09AF855
:1024C0002068816941F0080181612068816921F0FB
:1024D00004018161206881692A69114311E0206843
:1024E00001F0B8F82068816941F4006181612068D9
:1024F000816921F480618161206881692A6941EAEA
:102500000221816124E0206801F0DAF82068C169C5
:1025100041F00801C1612068C16921F00401C16175
:102520002068C1692A69114311E0206801F0FCF8B4
:102530002068C16941F40061C1612068C16921F46A
:102540008061C1612068C1692A6941EA0221C161D3
:10255000002084F83C0070BD10B5040003D094F84E
:102560003D0010B107E0012010BD002084F83C00C0
:10257000204600F01EF8022084F83D00211D20684E
:1025800000F0D2FF012084F8460084F83E0084F871
:102590003F0084F8400084F8410084F8420084F849
:1025A000430084F8440084F8450084F83D0000208E
:1025B00010BD70477047000010B50446022249B1B3
:1025C00004290ED0082913D094F84100012816D010
:1025D000012010BD94F83E000128F9D184F83E2076
:1025E0000FE094F83F000128F2D184F83F2008E082
:1025F00094F840000128EBD184F8402001E084F8F1
:1026000041200122206800F0D5FF13492068134AB9
:10261000884201D0904203D1436C43F400434364A9
:10262000206888420DD090420BD0B0F1804F08D086
:102630000B49884205D00B49884202D00A4988429A
:1026400004D1816801F00701062903D0016841F037
:1026500001010160002010BD002C01400034014048
:102660000004004000080040000C004000680349DE
:10267000884201D1FFF758B97047000000080040B8
:102680007047704770470000F8B50268044610684C
:10269000D168536910F00F0F4FF0000553D003F0CD
:1026A000010601F4907737435FD0C20705D0CA0511
:1026B00003D5226C42F001022264420705D5DA07F5
:1026C00003D0226C42F002022264820705D5DA07A9
:1026D00003D0226C42F004022264020707D501F005
:1026E0002002324303D0226C42F008022264226CA2
:1026F000002A34D0800604D5880602D5204601F091
:102700007EF820684069216CC0F38010090700D46E
:1027100030B3204601F05BF82068416949061BD5BB
:10272000416921F040014161A06BA8B15849416362
:10273000A06BFEF7D1FA002811D0A06B416B01B05D
:10274000BDE8F040084783060FD58B060DD520461F
:10275000BDE8F84001F053B82046FFF793FFF8BDFD
:102760002046FFF78FFF2564F8BD266B2023012E3E
:1027700052D1C60650D5CE064ED51068506800908E
:10278000506940062AD5A16B086840680004000C17
:10279000EAD0A68D8642E7D9E0858869202818D03E
:1027A000D06820F48070D0602068416921F0010178
:1027B00041612068416921F04001416184F83E3067
:1027C00025632068C16821F01001C160A06BFEF78D
:1027D00060FAA08DE18D401A81B219E0A08DE18DE3
:1027E000401A81B2E08D0028BED00029BCD0D0684C
:1027F00020F49070D0602068426922F001024261AA
:1028000084F83E3025632068C26822F01002C2605E
:102810002046FFF736FFF8BD05062BD50D0629D556
:1028200094F83D002128F6D1A068B0F5805F01D171
:102830002069B0B1206A411C21622168007848609B
:10284000E08C401E0004000CE084E4D12068C168E4
:1028500021F08001C1602068C16841F04001C16081
:10286000F8BD206A0088C0F308005060206A801C10
:102870002062E5E74006F3D54806F1D5D168204649
:1028800021F04001D16084F83D3000F02AF9F8BD14
:10289000BF37000870B5040004D094F83D0000254F
:1028A00010B106E0012070BD84F83C50204600F0D5
:1028B00023F8242084F83D002068C16821F40051E9
:1028C000C160204600F0F6FF2068016921F49041C4
:1028D00001612068416921F02A0141612068C168D5
:1028E00041F40051C1602564202084F83D0084F843
:1028F0003E00002070BD000030B585B0002400947B
:102900000194029403942E4D03682E480221032261
:10291000AB4227D1C36943F40033C361C36903F4F5
:1029200000330493836943F0040383618069264D77
:1029300000F0040004900420CDE9000103926946F0
:102940002846FEF773FA0820CDE9000469462846B8
:102950000294FEF76BFA002205212620FFF764F8A7
:10296000262029E0194DAB4228D1C36943F48023C6
:10297000C361C36903F480230493836943F00803AC
:1029800083618069039200F0080004902815CDE966
:1029900000010F4D69462846FEF748FAE814CDE9D4
:1029A0000004694628460294FEF740FA00220521F9
:1029B0002720FFF739F82720FFF728F805B030BDAA
:1029C0000044004000100240000801400048004060
:1029D000000C014090F83E30202B0ED159B152B17D
:1029E00090F83C30012B08D0012380F83C300023C4
:1029F000036300F0BBBF0120704702207047000056
:102A000010B509490068096888420BD10748407829
:102A100003F056FB05490122BDE81040491C02485D
:102A2000FFF7D8BF10BD0000E40800200000002020
:102A30002DE9F843044690F83D001F4616460D4622
:102A400020284CD1C5B1BEB194F83C00012846D035
:102A5000012084F83C004FF00008C4F84080212099
:102A600084F83D00FEF7F0FAA6848146E684A0686B
:102A7000B0F5805F03D004E00120BDE8F883206951
:102A800028B12E465FF0000584F83C800EE0002659
:102A9000FAE78021204600F084FFA0B9AEB116F815
:102AA000010B21684860E08C401EE084E08C4B46BE
:102AB0004FF0000200970028EBD14FF04001204674
:102AC00000F06FFF30B10320D7E735F8020BC0F3F9
:102AD0000800E6E7202084F83D000020CDE7022032
:102AE000CBE77047FEE701684A69D24352050FD42D
:102AF0006FF480624A61002140F8301F2022427347
:102B00008173026942F0040202610173012070477F
:102B1000002070472DE9F84F0446C06A1E469346D0
:102B20000D4621680A6842F480620A60082807D0CE
:102B3000012805D010F5803F02D0206B112804D168
:102B40002068016841F4807101604FF001195B4613
:102B5000002249462046009600F098F94FF400788C
:102B600040B120680068C00501D5C4F8408003204A
:102B7000BDE8F88F2069DFF884A0B0F5804F0FD052
:102B80000620216800EAD51747F0F00008613346B7
:102B90005A460AF10601204600F0ACF958BB03E0A2
:102BA000E8B240F001001CE02168E8B20861334659
:102BB0005A465146204600F09DF9E0B92068416927
:102BC00081690091016841F4807101605B460022D7
:102BD00049462046009600F059F90028C1D147F037
:102BE000F1002168086133465A465146204600F0FC
:102BF00081F90028BCD00120BAE7000002000100E2
:102C0000F8B50446C06A1E460D461746082807D088
:102C1000012805D010F5803F02D0206B122804D186
:102C20002068016841F480710160134600224FF072
:102C300001112046009600F029F940B12068006893
:102C4000C00502D54FF4007020640320F8BD206950
:102C5000B0F5804F0ED00620216800EAD51040F074
:102C6000F000086133463A460B49204600F042F92D
:102C700078B902E005F0FE0000E0E8B221680861E2
:102C8000054933463A46891F204600F033F90028AB
:102C9000DCD00120F8BD0000080001002DE9F84F4C
:102CA0000446006889460B9D01689846174641F422
:102CB000806101602068016841F4807101600095C5
:102CC0004FF0011B0022594620460A9B00F0DEF817
:102CD0004FF4007A40B120680068C00501D5C4F8FF
:102CE00040A00320BDE8F88F216809F0FE000861CC
:102CF0002B46284920460A9A00F0FCF8F0BB2068D1
:102D00004169806900902A4620460A9900F070F9CE
:102D100040B1206C04283AD12068016841F4007168
:102D2000016034E0FEB2B8F1010F09D02168380A21
:102D300008612A4620460A9900F05AF90028E8D18D
:102D4000206806612A4620460A9900F051F90028B9
:102D5000DFD12068016841F4807101600095002294
:102D6000594620460A9B00F091F80028B3D121680B
:102D700009F0FF0040F00100086100E007E02B4689
:102D8000044920460A9A00F0B5F80028AAD001208C
:102D9000A8E70000020001002DE9F843044600689E
:102DA0000D46DDE9089701689846164641F48071A2
:102DB00001604B4600224FF001112046009700F0C1
:102DC00065F848B120680068C00502D54FF400706E
:102DD00020640320BDE8F883216805F0FE00086147
:102DE0003B464A461549204600F084F888B92068D9
:102DF0004169806900903A464946204600F0F8F85B
:102E000048B1206C042804D12068016841F40071A5
:102E100001600120DEE7F5B2B8F1010F09D02168A9
:102E2000300A08613A464946204600F0E1F8002899
:102E3000E7D1206805610020CCE700000200010016
:102E400070B516460D4604460DE02046FFF74BFED2
:102E500008B1012070BD681C05D0FEF7F5F8801B95
:102E6000A84207D835B120684069C0434007ECD478
:102E7000002070BD002044F8300F20216173A07342
:102E8000216941F0200121612073E2E72DE9F0473B
:102E90001E4690460D460446C1F30747DDF82090D4
:102EA00008E0701C06D0FEF7CFF8A0EB0900B04296
:102EB0000FD876B12068012F18D0806925EA00006C
:102EC0000004000C14D000214145EAD00020BDE8E8
:102ED000F087002044F8300F20216173A07321692E
:102EE00041F02001216120730120F0E74069E5E70E
:102EF0000121E9E72DE9F0479A4691460E4604463E
:102F000000254FF02008C1F3074725E020684069FD
:102F1000C043400514D42068016841F40071016089
:102F200021686FF480604861256384F83D8084F8EF
:102F30003E50206C40F00400206484F83C501FE0B8
:102F4000B9F1FF3F08D0FEF77FF8A0EB0A01494531
:102F50000CD8B9F1000F09D02068012F13D0806977
:102F600026EA00000004000C0BD0CFE744F8305FE5
:102F700084F80D80A573206940F02000206125733E
:102F80000120BDE8F0874069EAE72DE9F04100251E
:102F900090460E460446202717E04069C043C0060D
:102FA0000CD454F8301B6FF01000486144F81059ED
:102FB0006777A577206A2062257717E0FEF744F847
:102FC000A0EB0800B04208D83EB120684169C9436F
:102FD0004906E2D40020BDE8F08144F8305F677311
:102FE000A573206940F02000206125730120F2E7DD
:102FF00070B516460D4604460DE02046FFF773FDFA
:1030000008B1012070BD681C05D0FEF71DF8801BBB
:10301000A84207D835B120684069C0430006ECD407
:10302000002070BD002044F8300F20216173A07390
:10303000216941F0200121612073E2E730B54FF4AE
:103040000075BBB0002229464C48FDF7F8FF4C4CF8
:10305000102322464B494C48FDF72BFD4A48234696
:10306000A21519461030009501F0E1FC4648F921FF
:10307000103001F0C3FC4448103001F0CAFC03F0EA
:1030800079FB424C4FF47A750123A06140480090CF
:10309000002229463FA004F01FF92061414800901A
:1030A00001230022294640A004F016F9424DE060B9
:1030B0000DF1C80C95E80F008CE80F00002132A834
:1030C00001F068FFA063D5E90401CDE9360139A814
:1030D0003890002136A801F0B3FE60611C2205F192
:1030E0001C0101A8FDF7CDF8002101A801F0E1FFC6
:1030F000E0611C2205F1380108A8FDF7C2F80021A3
:1031000008A801F0D6FF20621C2205F154010FA887
:10311000FDF7B7F800210FA801F0CBFF60621C2279
:1031200005F1700116A8FDF7ACF8002116A801F012
:10313000C0FFA0621C2205F18C011DA8FDF7A1F8BB
:1031400000211DA801F0B5FFE0621C2205F1A801D5
:1031500024A8FDF796F8002124A801F0AAFF206317
:103160001C2205F1C4012BA8FDF78BF800212BA828
:1031700001F09FFF60633BB030BD000000100140D4
:10318000000C014058080020EC0000200400002042
:10319000150A000854696D657220636F756E74645A
:1031A0006F776E00253A00085761697454656D7039
:1031B00020646F776E000000FC7300082DE9F04F6B
:1031C00085B00024314800940194029403948169ED
:1031D00041F020018161816901F020010491816940
:1031E00041F004018161816901F004010491816968
:1031F00041F008018161816901F008010491816950
:1032000041F0100181618069DFF884A000F01000B6
:103210004FF400770490002239465046FDF70FFF27
:10322000DFF870B04FF41848002241465846FDF7C9
:1032300006FF4FF48879002249461748FDF7FFFE44
:103240000226012500970396CDE9015469465046B0
:10325000FDF7ECFDCDF800800396CDE901546946F9
:103260005846FDF7E3FDCDF800900396CDE90154F3
:1032700069460948FDF7DAFDCDE90074694606485C
:103280000294FDF7D3FD05B0BDE8F08F00100240B9
:103290000010014000080140000C01400D4810B52D
:1032A0000B4901600C49416000214FF4804281606C
:1032B000C0E9031241618161C1610162FDF7CAFE8B
:1032C000002803D0BDE81040FDF7E2BC10BD0000AF
:1032D00000540040BC070020A086010010B596B045
:1032E00000240F9410941194129413941C21684696
:1032F0001494FCF7DFFF202107A8FCF7DBFF304820
:103300002E4901602321C0E9011440F2CF71C0E9C8
:10331000031444618461FEF7BFFE08B1FDF7B8FCF9
:103320004FF480500F900FA92548FEF76BFF08B1AE
:10333000FDF7AEFC2248FFF70FF908B1FDF7A8FC36
:10334000139413A91E481494FEF768FE08B1FDF704
:103350009FFC6020CDE9000402940394049405943A
:103360000022694616480694FFF793F808B1FDF766
:103370008FFC042269461248FFF78BF808B1FDF76D
:1033800087FC082269460E48FFF783F808B1FDF76D
:103390007FFC0794089409944FF400500A94CDE9F7
:1033A0000B4007A906480E94FEF70EFE08B1FDF784
:1033B0006FFC0348FFF746F816B010BD002C014023
:1033C0001008002010B586B000241748009401941E
:1033D0000294039404941349059401604721C0E9C1
:1033E00001144FF6FF71C0E903148461FEF754FE27
:1033F00008B1FDF74DFC4FF48050009069460A4833
:10340000FEF700FF08B1FDF743FC049404A9064849
:103410000594FEF703FE002801D0FDF739FC06B045
:1034200010BD000000040040580800200C4810B5F2
:103430000A4901604FF4E1314160002181600C22B2
:10344000C160C0E904128161C161FFF723FA00285D
:1034500003D0BDE81040FDF71BBC10BD0044004088
:10346000A00800200C4810B50A4901604FF4E13172
:103470004160002181600C22C160C0E904128161B9
:10348000C161FFF707FA002803D0BDE81040FDF73F
:10349000FFBB10BD00480040E4080020FEE7704775
:1034A00010B5502080F31188BFF34F8FBFF36F8F9B
:1034B00003F0C6FD18B104494FF0805008600020A9
:1034C00080F3118810BD000004ED00E030B58FB02E
:1034D00028216846FCF7EEFE14210AA8FCF7EAFE54
:1034E00001210804CDE90010002402940225049172
:1034F000CDE907504FF4E01009906846FEF7D2FB83
:103500000F20CDE90A056802CDE90C4002210AA886
:103510000E94FEF7BBFA0FB030BD70470148FEF7BE
:10352000DDBE000028090020F0B502681C4B1D4DCF
:103530001D4E1E4F1E4C4FF0804C984209D0A042A9
:1035400007D0604505D0A84203D0B04201D0B842B0
:1035500004D122F0700E4A6842EA0E02984209D065
:10356000A04207D0604505D0A84203D0B04201D0A8
:10357000B84203D122F44075CA682A434D6922F04B
:1035800080022A4302608A68C2620A6882629842A4
:1035900001D0A04201D10969016301214161F0BD5F
:1035A000002C01400004004000080040000C0040D6
:1035B0000034014010B501F01F030121046A994055
:1035C0008C430462016A9A401143016210BD10B538
:1035D000846842EA032224F47F440A43224382603F
:1035E00010BD826822F070020A4342F00701816038
:1035F00070470000F0B5026A22F001020262036A1D
:1036000042688469124E24F073050C682C4323F041
:1036100002058B682B430D4DA84201D0B04205D165
:1036200023F00807CB683B4323F00403A84201D0F2
:10363000B04205D14D6922F4407215438A692A438C
:1036400042608461496841630362F0BD002C01401F
:1036500000340140F0B5026A22F010020262026AF0
:10366000436884690D6824F4E64444EA05248D68BF
:1036700022F0200242EA05120F4D104EA84201D05E
:10368000B04206D1CF6822F0800242EA071222F04F
:103690004002A84201D0B04207D14D6923F44063F3
:1036A00043EA85038D6943EA850343608461496881
:1036B00081630262F0BD0000002C01400034014033
:1036C000F0B5026A22F480720262026A4368C46939
:1036D00022F4007224F073050C68124E2C438D689E
:1036E00042EA05220E4DA84201D0B04206D1CF6871
:1036F00022F4006242EA072222F48062A84201D04A
:10370000B04207D14D6923F4405343EA05138D6954
:1037100043EA05134360C4614968C1630262F0BDB6
:10372000002C01400034014030B5026A22F480527E
:103730000262046A4268C3690D6823F4E64343EAFF
:1037400005238D6824F4005444EA0534084DA8424A
:1037500002D0084DA84204D14D6922F4804242EAC9
:1037600085124260C36149680164046230BD000093
:10377000002C01400034014010B5036A046A24F0B3
:1037800001040462846924F0F00444EA021423F082
:103790000A020A438461026210BD10B5036A23F075
:1037A000100303628369046A23F4704343EA02321C
:1037B00024F0A00343EA01118261016210BD10B53B
:1037C000406A0021C185C184FEF75CFF10BD01681D
:1037D000CA6822F49072CA6001684A6922F0010244
:1037E0004A61016B012904D10168CA6822F0100204
:1037F000CA60202180F83E1000210163704708B59F
:1038000090F83E10222901D0022008BD82684FF4B2
:1038100080539A4201D1016921B1816A9A421BD039
:103820004AB10AE00268816A5268C2F308020A805B
:10383000816A891C08E0026972B10268526802F06C
:103840007F020A70816A491C8162C18D491E090488
:10385000090CC18503D019E002685268F1E70168DC
:10386000CA6822F02002CA600168CA6822F4807225
:10387000CA6001684A6922F001024A61202180F889
:103880003E10016B012903D0FFF7BAF8002008BDF4
:10389000002101630168CA6822F01002CA60016851
:1038A0000A68D20602D50A6849680091818DFEF740
:1038B000E8FEEBE770B5044600680169E26821F4B0
:1038C0004051114301612169A068084361690843BF
:1038D0002168CA6841F20C639A430243CA602068B7
:1038E0004169A26921F44071114341611E49206878
:1038F000884202D1FEF790F901E0FEF77DF900EB76
:10390000C00101EB0012606864218000B2FBF0F39B
:10391000B3FBF1F36FF018067343B2FBF0F5B2FBA3
:10392000F0F605EB8305322303EB0515B5FBF1F546
:10393000B6FBF1F605F0F00505EB0615B2FBF0F667
:10394000B2FBF0F0B0FBF1F06FF01802504306EB61
:10395000800003EB0010B0FBF1F0216800F00F00D5
:103960002844886070BD0000003801408162828573
:10397000C28500210164222280F83E2080F83C109C
:103980000168CA6842F48072CA6001684A6942F0FC
:1039900001024A610068C16841F02001C160002055
:1039A00070472DE9F041984617460E460446069D9D
:1039B0001DE0681C1BD02DB1FDF746FBA0EB0800F5
:1039C000A84214D92068C16821F4D071C160206870
:1039D000416921F001014161202084F83D0084F813
:1039E0003E00002084F83C000320BDE8F081206800
:1039F000006836EA000004D00020B842D9D0002088
:103A0000F3E70120F9E700000148FEF73DBE0000A2
:103A1000A00800200148FEF737BE0000E40800209F
:103A2000FEE70000F8B51848FDF777F8174C064692
:103A300017A0A168491CA16000F0ECFD0A253C2EEE
:103A400006D303F0F7FA002302460121009517E0A0
:103A500015A000F0DFFD012001F0CCF900201A498B
:103A6000A0600220087003F0E5FA024600950023EA
:103A70000121206903F07AFC00231A4603210095F6
:103A8000E06803F073FCF8BDEC00002004000020A7
:103A9000576169745F74656D705F636F756E743ABA
:103AA0002025640A0000000054656D70204F6B3AB9
:103AB000205461736B20707265706172652072753D
:103AC0006E6E696E670A00000000002037B514466C
:103AD0000846064B6A46214600F0F0F8044669465F
:103AE000002000F082FC20463EBD0000EB430008B1
:103AF0000907090E002804DB00F1E02080F800141B
:103B0000704700F00F0000F1E02080F8141D7047AE
:103B100000487047E800002002E008C8121F08C1F2
:103B2000002AFAD170477047002001E001C1121F3E
:103B3000002AFBD1704700002DE9FF5F82B0002111
:103B4000DDE90430020DDDF840B0034318D044F63F
:103B50001050A2F2FF3242431514119801281FD0D1
:103B6000A5EB0B00401C5FEA000A4FF000064E4F29
:103B7000DFF83891B046504615D5CAF1000413E07D
:103B8000119801244AA3012801D16FEA0B01029880
:103B9000119AC0E90031C0E9024206B0BDE8F09FC9
:103BA000CBF10000DFE704460021404A491842EB10
:103BB0000450CDE9001012E0E00707D032463B4642
:103BC00040464946FCF7EBFC8046894632463B4678
:103BD00010461946FCF7E3FC06460F466410002C1D
:103BE000EAD1DDE90401DDE90023BAF1000F06DACC
:103BF000FCF7D5FC42464B46FCF7D1FC05E0FCF750
:103C000040FD42464B46FCF73CFD04460E46002272
:103C1000284BFCF7BDFD03D84FF0FF30014607E00D
:103C20000022254B20463146FCF712FCFCF798FD9C
:103C3000102409E0002C0ADB0A220023FCF79FFB7A
:103C4000039B30321A55641E50EA0102F2D1641C03
:103C5000039AC4F111031444119A012A03D00122DA
:103C600008430DD10AE0084304D000204FF0110BA7
:103C7000119072E7A3EB0B056D1E0DE05B4504DDB3
:103C80004FF0000205F1010504E003DA4FF00002F5
:103C9000A5F10105002AECD002981199C0E9023182
:103CA000C0E9004579E70000000014400000F03F43
:103CB000300000000000F0430000E03F2DE9FF4F1E
:103CC00095B09B468946064600250FE2252877D108
:103CD00000242746F84A0121059400E0044316F821
:103CE000013F203B01FA03F01042F7D130782A2837
:103CF00011D06FF02F033078A0F13002092A16D8C6
:103D0000059A44F0020402EB820203EB42021044E3
:103D1000761C0590EFE759F8042B0592002A03DA88
:103D2000504244F40054059044F00204761C30786C
:103D30002E2816D116F8010F44F004042A280DD0BD
:103D40006FF02F023078A0F13003092B09D807EB70
:103D5000870302EB4303C718761CF3E759F8047B8B
:103D6000761C30786C280FD006DC4C2817D06828D9
:103D70000DD06A2814D104E0742810D07A280FD10D
:103D80000DE044F400140AE044F4801401E044F42B
:103D900040147278824202D104F58014761C761C9D
:103DA000307866280BD013DC582877D009DC00283F
:103DB00075D04528F6D04628F4D047281AD19DE181
:103DC00018E0632835D0642879D0652812D195E1B0
:103DD000702873D008DC6728F1D069286FD06E286E
:103DE0000DD06F2806D1B5E073282CD0752875D07A
:103DF000782874D05A46179990476D1C75E1C4F322
:103E00000250022809D003280DD0D9F80010042848
:103E10000DD00D6009F1040967E1D9F80010EA1727
:103E2000C1E90052F6E7D9F800100D80F2E70D70F5
:103E3000F0E719F8041B8DF8001000208DF8010040
:103E4000EA46012003E059F804AB4FF0FF30610768
:103E50004FF0000102D40DE008F101018846B9429B
:103E60000FDA8045F8DB1AF808100029F4D108E0D1
:103E700008F1010188468142FADB1AF8081000298E
:103E8000F6D105985B46A0EB080721463846179AFD
:103E900000F094FA284400EB080507E04DE029E122
:103EA0000DE01AF8010B5A4617999047B8F101082E
:103EB000F7D25B4621463846179A13E142E00A22C0
:103EC0000092C4F302524FF0000A022A08D059F8B7
:103ED00004CB032A4FEAEC710AD00DE029E02AE076
:103EE00009F1070121F00702F2E802C1914609E059
:103EF0000FFA8CFC4FEAEC71042A03D14FFA8CFCC8
:103F00004FEAEC71002907DA0A460021DCF1000CC7
:103F100061EB02012D2202E0220504D52B228DF84F
:103F20000420012203E0E20701D02022F7E79046B7
:103F300059E00A2102E010220DE010214FF0000AA2
:103F400000910BE010224FF0000A44F0040408270F
:103F5000009203E008224FF0000A0092C4F30252DC
:103F6000022A05D059F804CB0021032A08D009E021
:103F700009F1070121F00702F2E802C1914605E0CC
:103F80001FFA8CFC042A01D10CF0FF0C4FF0000842
:103F9000220728D5702806D0009B83F0100353EA2F
:103FA0000A0305D00EE040228DF80420012208E02B
:103FB0005CEA010206D030228DF804208DF805005D
:103FC00002229046009B83F0080353EA0A030AD1B9
:103FD0005CEA010201D1620705D530228DF8042088
:103FE0004FF001087F1E582804D034A003900EA87B
:103FF00002900DE036A0F9E753466046009AFCF7C0
:10400000BEF984460398825C0298401E02900270BA
:104010005CEA0100F0D1029806A9081A00F1200A12
:10402000600702D524F4803400E00127574502DD03
:10403000A7EB0A0000E0002000EB0A0100900598C1
:104040004144401A0590E00306D45B462146179A86
:10405000059800F0B3F90544002706E001A85A4688
:10406000C05D179990476D1C7F1C4745F6DBE00348
:104070000CD55B462146179A059800F09FF9054438
:1040800004E030205A46179990476D1C0099481E4D
:1040900000900029F5DC08E0029802995A46007861
:1040A000491C0291179990476D1CBAF10001AAF1C1
:1040B000010AF1DC65E100000928010030313233EA
:1040C0003435363738396162636465660000000054
:1040D000303132333435363738394142434445463E
:1040E0000000000000F058F90544761C30780028E4
:1040F0007FF4ECAD19B02846BDE8F08F620700D41C
:10410000062709F1070222F0070CFCE80223E1462A
:1041100003F000485FEA080C02D00FF2702C0DE0AB
:104120005FEA045C02D50FF2682C07E05FEAC47C0A
:1041300002D00FF2602C01E0AFF2700C4FF0FF38AC
:1041400023F00043CDF850C065280CD006DC45288C
:1041500009D046281DD047283DD13DE0662818D01B
:1041600067287ED138E00021112F01DB112000E00B
:10417000781CCDE9000106A90EA8FFF7DDFCDDE9FA
:104180000F010E9A03910021009207F1010A049198
:104190004DE04FF000400097CDE9011006A90EA8B0
:1041A000FFF7CAFCDDE90F0203920E9B1199002272
:1041B000DDF80CA00093049211B9791C00EB010A00
:1041C000B7EB0A0004D4C0F1FF3007F1010A0490F4
:1041D000AAEB0700019044E0012F00DA012700213B
:1041E000112F01DD112000E03846CDE9000106A9BC
:1041F0000EA8FFF7A1FCDDE90F010E9A0391002143
:1042000004910092BA4621070CD40399514500DA73
:104210008A46BAF1010F05DD009AAAF10101515C4D
:10422000302908D0B84202DA10F1040F06DA012171
:10423000CDE9011015E0AAF10101E9E7002805DC4C
:10424000049901440491AAEB000102E0411C51458C
:1042500000DD8A460499401A401C01904FF000404E
:104260000290200704D40198504501DBCDF804806A
:1042700000208DF84F0002980DF14F07B0F1004F6C
:1042800025D02B200E9002984FF0020800280CDA5F
:10429000404202902D200E9007E00A210298FCF780
:1042A00058F83031029007F8011DB8F10001A8F16B
:1042B0000108F2DC02980028EFD1791E0E980870F0
:1042C000307800F0200040F0450007F8020D12A8F9
:1042D000C01B00F107081498007800B1012000EB22
:1042E0000A01019801EBE07105984144401A401E13
:1042F0000590E00306D45B462146179A059800F026
:104300005DF805441498007818B15A4617999047FB
:104310006D1CE00324D55B462146179A059800F0F2
:104320004DF805441CE00498002807DBDDE9030193
:10433000884203DD0098405C179901E0179930200E
:104340005A469047049805F10105401C04900198D5
:10435000401E019004D12E205A46179990476D1C9B
:10436000BAF10001AAF1010ADDDC05E017F8010B42
:104370005A46179990476D1CB8F10001A8F1010841
:10438000F4DC5B462146179A0598ABE62D00000049
:104390002B000000200000002DE9F041044600251C
:1043A0001E461746880404D405E039462020B0474D
:1043B0006D1C641EF9D52846BDE8F0812DE9F04159
:1043C000044600251E469046C80301D5302700E06C
:1043D0002027880404D505E041463846B0476D1CC7
:1043E000641EF9D52846BDE8F0810A68531C0B60AD
:1043F0001070704708B5104C4FF0FF354FF4007641
:104400004FF47A770095002301223146A06902F02B
:1044100005FA8005F6D53A466946A06B02F080FCA5
:1044200006A0009900F0F6F800980028EAD10A21C9
:104430000B4800F048FBE5E70400002043616C698D
:1044400062436F64652052656365697665204672D4
:104450006F6D2051756575653A2025640A0000006E
:10446000FC00002001B509A0009900F0D3F80D4828
:10447000002364226946006802F044FB0A484FF4B6
:104480000071006802F084F908BD000043616C69A6
:1044900062207461736B20696E666F3A2025640A2E
:1044A000000000003C0000201C000020234C86B0CF
:1044B0004FF0FF374FF480780097002301224146E8
:1044C000A06902F0ABF9C005F6D54FF47A76324612
:1044D00003A9A06B02F024FC03AD3246691CA06B5B
:1044E00002F01EFC3246A91CA06B02F019FC3246F9
:1044F000291DA06B02F014FC3246691DA06B02F06E
:104500000FFC3246A91DA06B02F00AFC05208DF8B5
:104510000F009DF810009DF812209DF811108DE8F5
:1045200007009DF80E309DF80D209DF80C1004A09A
:1045300000F070F803A800F0E9F9BDE704000020DE
:1045400054696D6520436F6E6669673A2025303285
:10455000643A253032643A25303264202D202530EB
:1045600032642F253032642F3230253032640A0015
:104570001FB584B004ACDDE90A1207988DE8070086
:1045800094E80E0017A000F045F8204C00236422A8
:1045900004A9206802F0B6FA0023642205A9206865
:1045A00002F0B0FA0023642206A9206802F0AAFAF9
:1045B0000023642207A9206802F0A4FA00236422E1
:1045C0000AA9206802F09EFA002364220BA9206841
:1045D00002F098FA0E484FF48071006802F0D8F8A3
:1045E00008B010BD436F6E666967207461736B20FD
:1045F000696E666F3A202564202564202564202595
:10460000642025642025640A000000003C0000208E
:104610001C0000200FB400B599B01BAA68461A9977
:10462000FFF754FA6846FBF750FE82B20448642351
:1046300069464068FEF7FCF919B05DF814FB00000C
:10464000C40000200149486070470000C4000020F9
:1046500010B5022901D907A001E004D20BA0BDE8E2
:104660001040FFF7D7BF4068FBF766FEBDE810407B
:10467000FFF7F8BE546F6F206D7563682061726735
:104680002C20617267203D2025640A00446F6E274C
:104690007420656E6F756768206172672C20617287
:1046A00067203D2025640A002DE9FC4704460729C0
:1046B00001D914A001E004D218A0BDE8FC47FFF71F
:1046C000A9BF6068FBF738FE8146A068FBF734FE9F
:1046D0008046E068FBF730FE06462069FBF72CFEBB
:1046E00005466069FBF728FE0746A069FBF724FE34
:1046F000CDE900702B46324641464846FFF738FF69
:10470000BDE8FC87546F6F206D7563682061726728
:104710002C20617267203D2025640A00446F6E27BB
:104720007420656E6F756768206172672C206172F6
:1047300067203D2025640A0070B50446042901D98C
:104740000EA001E004D213A0BDE87040FFF762BFE5
:1047500017A0FFF75FFF6068FBF7EEFD0646A06855
:10476000FBF7EAFD0546E068FBF7E6FD0246294651
:104770003046BDE8704001F099B90000546F6F20D9
:104780006D756368206172672C20617267203D201F
:1047900025640A00446F6E277420656E6F75676824
:1047A000206172672C20617267203D2025640A0019
:1047B0004F4B2052756E206172670A0010B50229B6
:1047C00001D907A001E004D20BA0BDE81040FFF71B
:1047D00021BF4068FBF7B0FDBDE8104001F0C6BA4C
:1047E000546F6F206D756368206172672C20617251
:1047F00067203D2025640A00446F6E277420656E93
:104800006F756768206172672C20617267203D2098
:1048100025640A0010B50446022901D909A001E067
:1048200004D20EA0BDE81040FFF7F4BE12A0FFF7BF
:10483000F1FE6068FBF780FDBDE81040C0B201F0FA
:104840005DBB0000546F6F206D75636820617267F7
:104850002C20617267203D2025640A00446F6E277A
:104860007420656E6F756768206172672C206172B5
:1048700067203D2025640A004F4B20546573742047
:104880006172670A000000007FB504461B4E0020DD
:1048900064258DF80C000095012303AAD02130680F
:1048A000FCF7BEFD0095072301AAD0213068FCF774
:1048B00095FC9DF80400FCF7A3F820709DF8050016
:1048C000FCF79EF860709DF80600FCF799F8A07060
:1048D0009DF80700FCF794F8E0709DF80800FCF7DD
:1048E0008FF820719DF80900FCF78AF860719DF837
:1048F0000A00FCF785F8A0717FBD0000D000002001
:104900000149086070470000D00000200EB5034642
:1049100000208DF804001878FCF7B6F88DF8050033
:104920005878FCF7B1F88DF806009878FCF7ACF8E9
:104930008DF80700D878FCF7A7F88DF808001879EB
:10494000FCF7A2F88DF809005879FCF79DF88DF86E
:104950000A009879FCF798F88DF80B006420009015
:104960000348082301AAD0210068FCF759FD0EBDB9
:10497000D000002070B50546064C05E029462068A9
:10498000FBF7AAFC20B1083460680028F6D170BD9E
:10499000606870BD1C75000838B5164D0446286B5C
:1049A00001F034FE01F0EAFA042269463020FBF7F8
:1049B000FFFF0098696808440F490090884200D3BF
:1049C0000524042269463020FCF706F8094AE1B2C2
:1049D000121D002001F0E4F8064AE1B2121D012088
:1049E00001F0DEF80A2001F0ABFA286B01F08CFD33
:1049F00038BD00000400002000DD6D00016170473B
:104A00000420401E00BF00BF00BF00BF0028F8D137
:104A1000704738B5044600F049F804226946102072
:104A2000FBF7C6FF0098E0600020207538BD2DE937
:104A3000FF5F9B4616468A4604460E9F00F036F8F6
:104A4000C4F800A02681C4F804B067814FF00309C0
:104A500000254FF00108CDF80C900096CDE90185B6
:104A600069465046FCF7E2F901AA009782E8200364
:104A700069465846FCF7DAF9218901222068FCF7DB
:104A8000DEFA0A20FCF7C0F9218900222068FCF731
:104A9000D6FA0A20FCF7B8F9204600F040F8204684
:104AA00000F03DF82575BDE8FF9F000010B50446F5
:104AB00002E000BFFCF7A8F9207D00284FF00100BC
:104AC000F8D1207510BD2DE9F8430F468046FFF759
:104AD000EDFF00252C462E460CE0404600F01FF866
:104AE00001464D1944EBE0744FF00500FCF78CF9DA
:104AF000761CB6B2BE42F0D300263A46334628466C
:104B00002146FBF77DFBC8F80C00009004226946A3
:104B10001020FBF761FF88F81460BDE8F88370B5DA
:104B200004460025FCF790FA064609E00120FCF750
:104B30006BF9FCF789FA801B962801D9002070BD1B
:104B400061896068FCF76EFA0128EFD000262189A0
:104B500001222068FCF773FAFFF752FF2189002237
:104B60002068FCF76CFAFFF74BFF6D006189606805
:104B7000FCF758FA012800D16D1C761C76B2182E6D
:104B8000E5DB85F40005218901222068FCF757FA4E
:104B9000FFF736FF218900222068FCF750FAFFF763
:104BA0002FFF284670BD2DE9F0410F468046FFF7E4
:104BB0007DFF00252C462E460CE04046FFF7AFFF58
:104BC00001464D1944EBE0744FF00500FCF71CF969
:104BD000761CB6B2BE42F0D300263A46334628468B
:104BE0002146FBF70DFBD8F80C10411AD8F810003D
:104BF00088F8146091FBF0F0BDE8F081EFF30580D8
:104C0000002800D00120704708B5234F234D40F6FF
:104C1000B8382348FBF781FF04B221480221103045
:104C2000FFF7C1FF06460146A2B2002000F080FF58
:104C3000A2B23146012000F07BFF642E08DC3878F8
:104C400030B918A0FFF7E6FC4421A86901F0A0FDE7
:104C5000502C1CDB387808B1022818D11AA0FFF7B5
:104C6000D9FC002000F0C6F80A24002300941A465C
:104C70000321286902F07AFB02F0DCF90246009475
:104C800000230121E86802F071FB012038704046E2
:104C900001F072FBBDE700000000002004000020CE
:104CA000EC000020576569677468206572726F7246
:104CB0002C206A756D7020746F2073746F7020746F
:104CC00061736B0A0000000054656D70206572729C
:104CD0006F722C20696E746F207374616E646279D8
:104CE000206D6F64650A0000FCF726FEFEF7EEFB00
:104CF000FEF764FAFEF7D2FAFEF7F0FAFEF796FB3B
:104D0000FEF7B0FBFEF75EFB254801F0D3F925481E
:104D1000FFF798FC24A0FFF77DFC2648FFF7F0FD85
:104D20002448FBF73FFE012223491D48FDF752FEB0
:104D300021490120491E0870204800F055F8002143
:104D40001E48FDF739FC04211C48FDF735FC0821FD
:104D50001A48FDF731FC194900200A6850630A68B7
:104D600090630968C863164C02464FF40061204600
:104D7000FCF765F90022A1142046FCF760F9002237
:104D80004FF400412046FCF75AF9002261150D4806
:104D9000FCF755F9FEF752F900F046F8FEE700007F
:104DA000E4080020A0080020756172745F696E69D4
:104DB00074000000BC070020010000201008002043
:104DC000000801400010014001460020842900D065
:104DD000C81C704710B5401A029CE41A6043511A6F
:104DE00090FBF1F0184410BD014948607047000085
:104DF000DC00002010B50B4C48B1012806D16188B9
:104E0000208801F0CDF800202080608010BD60680F
:104E10000068416B2180806B6080BDE8104001F02C
:104E2000ADB80000DC00002010B501F0ABFB0020A5
:104E300010BD002802D0806800F0BFB870470000A5
:104E40003EB504460020009001900290206800903A
:104E5000606801900C2000F039FDA168002808600E
:104E600019D0046000220421206801F0AFFDA16880
:104E700009684860A168096870B1684600F0D2F816
:104E80000100A06800688160A068006803D100BFCD
:104E900001F0D2F900203EBD0846F9E710B1806864
:104EA00000F0EFB8802070472DE9FF410D00064665
:104EB000029522D04FF000084446CDF80C80501CDB
:104EC00020D002B11446FFF799FE20270028686819
:104ED00069461CD003AA091D01F0BEFF012814D0A9
:104EE000CDF800800398D8B112494FF08050086087
:104EF000BFF34F8FBFF36F8F12E0802000902A46E0
:104F000001990FE04FF0FF34DDE70097EAE7224612
:104F1000091D01F005FF012808D04CB14020009088
:104F20009DE8070086E80700BDE8FF810097F7E7E6
:104F30000020F4E704ED00E013B582B004000FD0C8
:104F400000200090FFF75AFE002860684FF0000331
:104F500014D06A4603A901F085FE012814D102E0AD
:104F6000802004B010BD009880B109494FF08050F6
:104F70000860BFF34F8FBFF36F8F07E0002203A9D4
:104F800001F0C0FD012801D0FF20EAE70020E8E79A
:104F900004ED00E038B5D0E9011204683AB1C36805
:104FA0002BB100200090204601F034FD38BD204692
:104FB000BDE83840002201F009BD70B50025044667
:104FC0002E46FFF71BFE48B15020EFF3118580F30A
:104FD0001188BFF34F8FBFF36F8F01E001F0F8F836
:104FE0000021A26809E020690844B0FBF2F302FB4B
:104FF000130063681B5C43B1491C8A42F3D8FFF776
:10500000FDFD58B185F311880AE062680121115451
:10501000E2682168206100FB0216F0E701F0F8F871
:10502000304670BD2DE9F04105464068C01C20F0B7
:105030000307142000F04AFC04001FD00026286853
:105040002661C4E90207286800F040FC606088B16E
:105050002868784300F03AFC206040B1002002E06C
:1050600061680E54401C29688142F9D806E06068E6
:1050700001F0E2F8204601F0DFF800242046BDE808
:10508000F08178B171B102688A420BD8891AC2687E
:10509000B1FBF2F302FB131323B9B1FBF2F1826807
:1050A0008A4201D88020704740680022425410464E
:1050B00070477FB50D4604464169B0F9080081B1DB
:1050C000A16971B1FFF780FED4E905128DE80700F0
:1050D000D4E900102B46226901F073FF039004B05D
:1050E00070BDFFF771FE03A9CDE90001208A2B46B0
:1050F00082B2D4E9001001F037FF012801D000206E
:10510000EDE70398EBE700002DE9F041184C0F465E
:10511000054666692068001D00F0F0FF38B9206878
:1051200090F82C1001208840A1698143A161681C7E
:1051300007D137B12168BDE8F0410E48091D01F0E3
:105140003BB820683544B5424560216805D2A06867
:10515000BDE8F041091D01F017B86068091D01F0B4
:1051600013F8206B854200D22563BDE8F081000072
:10517000500000208C0A00202DE9F041054601F086
:1051800027F82E4C2069401C206120682C4F10B15C
:10519000E06940B32DE025602069012829D100266F
:1051A00006EB860007EB800000F0E0FF761C072E80
:1051B000F6D323488C3000F0D9FF2148A03000F00E
:1051C000D5FF1F48B43000F0D1FF1D48C83000F0B3
:1051D000CDFF1B48DC3000F0C9FF19488C306060FF
:1051E0001430A06005E02068E96AC06A884200D8EF
:1051F0002560E06A401CE062E96A0120A2698840FB
:105200001043A06101EB810007EB8000291D00F035
:10521000D3FF00F0FDFFE06900280CD02068E96AA8
:10522000C06A884207D207494FF080500860BFF338
:105230004F8FBFF36F8FBDE8F0810000500000205A
:10524000B009002004ED00E038B500F0C1FF104CBB
:10525000A068C8B90F4800F089FF0E48143000F06C
:1052600085FF0C482060143060600A4B0020283312
:10527000009003F1480210210A2001F0CBFBA0604E
:1052800010B105A101F042F8BDE8384000F0C0BF00
:105290008C000020A00A0020546D72510000000014
:1052A00030B4026C0B46002A0BD0C1681144C160B7
:1052B0004468A14201D30168C16030BC1846FAF7C6
:1052C000E0BF30BC70472DE9F041856B17460446BE
:1052D0000026026C82B1C7B1E068FAF7D2FFE1683C
:1052E000206C091AE1602268914202D26168081AB2
:1052F000E060022F16D017E02068A8B9606801F0BE
:1053000003FF0646002060600EE0A068FAF7B9FFD0
:10531000216CA0680844A0606168884204D32068BA
:10532000A06001E005B16D1E6D1CA5633046BDE8AF
:10533000F08110B5044690F8510058B101280CD006
:1053400002280FD0502080F31188BFF34F8FBFF396
:105350006F8FFEE7206B00F06FFF2046BDE8104026
:1053600000F06ABF10BD00000F4841F6641142070B
:1053700005D0C01D0C4A20F00700821A891A0B4A7A
:1053800000230144C2E900030839103A21F0070163
:1053900011604B600B600B1AC0E9001393604FF073
:1053A00000405360D0607047B00B0020B000002078
:1053B000144E154CA6F1C8074FF08058DFF84C90FA
:1053C00012E000BF00F004FFF068C568281D00F07F
:1053D00095FE2069401E2061E068401EE06000F0FC
:1053E00017FF2846FFF7A5FFE0680028EAD13868D4
:1053F0000128F9D9C9F80080BFF34F8FBFF36F8F31
:10540000F2E70000780A00205000002004ED00E0E0
:105410000346009829B10260C0E90F31012101F073
:105420002DBB0060F8E72DE9F0479A46DDE90984D5
:1054300081466FF00303206B03EB82021044089D4A
:1054400020F00706700707D0502080F31188BFF3C3
:105450004F8FBFF36F8FFEE723180A5C83F8342069
:105460000A5C12B1401C1028F6D3002784F8437060
:10547000072D00D30625E562C4E91157201D00F071
:1054800080FE04F1180000F07CFE2461C5F10700E5
:105490006462A061E76484F8507052464946304621
:1054A00000F080FA2060B8F1000F01D0C8F8004089
:1054B000BDE8F0872DE9F0471E46DDE90894174660
:1054C0000D0080460ED0002C14D0FFF7BDFEC4F8AE
:1054D0000080C4E90657C4E90869201DBDE8F0470B
:1054E00000F04FBE502080F31188BFF34F8FBFF301
:1054F0006F8FFEE7BDE8F08730B5114900E0114637
:105500000A688242FBD34B685C18844203D140682E
:1055100018444860084643681C18944209D1084C56
:10552000103C2468A24209D052681A4442600A68BA
:1055300012680260814200D0086030BD0460F9E763
:10554000B000002070B5002441600B4D0061914215
:1055500006D8D11A8269914206D2011D686807E017
:105560009A4203D2994201D3012403E0011D286825
:1055700000F00AFE204670BD8C00002010B50446E5
:1055800000F026FEA06B28B15FF0000400F040FEA2
:10559000204610BD0124F9E730B589B0304D55E003
:1055A0000498002806DADDE90601059A9047049878
:1055B00000284BDB069C606910B1201D00F09EFDA9
:1055C00002A800F0B9F8024604980A283ED2DFE8A3
:1055D00000F00505053D263705053D260598A1691E
:1055E000034601442046FFF7ADFF00B3616A204641
:1055F0008847E069012829D1002000900598A16919
:10560000002342181946204601F0B0FE78B9502018
:1056100080F31188BFF34F8FBFF36F8FFEE70598BC
:10562000A06128B1811813462046FFF78BFF0DE0DB
:10563000502080F31188BFF34F8FBFF36F8FFEE7C9
:1056400094F8280010B9204600F0F6FD002204A9C5
:10565000A86801F065FB0028A2D109B030BD0000A8
:105660008C0000202DE9FC410F46054601F02CF886
:1056700001A800F061F80446019818B101F0CAFDD4
:10568000BDE8FC81224EAFB170680068A8B3002766
:10569000291B3A46B06800F04DFE01F0BBFD002822
:1056A000EED11C494FF080500860BFF34F8FBFF31D
:1056B0006F8FE5E7A542EBD801F0ACFD30682746D7
:1056C000C068C468201D00F019FDE069012810D1F0
:1056D000A0692B4641193A462046FFF733FF40B1F7
:1056E00000200346014600902A46204601F03EFE77
:1056F00020B1616A20468847C2E707E0502080F366
:105700001188BFF34F8FBFF36F8FFEE70127BFE70D
:105710008C00002004ED00E006484168096829B1CA
:105720004168C968C9684968016370474FF0FF3133
:10573000FAE700005000002070B5054601F07AFC41
:10574000064E04463069844203D200F009F8012075
:1057500000E0002028602046346170BD8C000020ED
:10576000F8B5194D1FE0C068C4680668201D00F038
:10577000C5FC616A20468847E069012813D1A06909
:105780003044B04206D924616060211D286800F0D1
:10579000FBFC08E00020034601460090324620460C
:1057A00001F0E4FD38B1286801680029DBD169689F
:1057B000C5E90010F8BD502080F31188BFF34F8F6A
:1057C000BFF36F8FFEE700008C00002008484068A0
:1057D000401C4FF0500080F3118804D0BFF34F8F6E
:1057E000BFF36F8FFEE7BFF34F8FBFF36F8FFEE7FF
:1057F000B8000020002150B10A4B42699A420FD1F3
:10580000806AA3F1280290420AD040B108E05020FB
:1058100080F31188BFF34F8FBFF36F8FFEE7012135
:10582000084670478C0A00200346002012B19943B5
:1058300002D070470B42FCD001207047074C206813
:10584000016841B1C0680021D0F80000FFF70AFFED
:10585000FFF7A2FEF3E701210020F7E78C0000200C
:105860002DE9F041044600F0B3FC94F9455004F1F1
:10587000240609E0606A48B1304601F091FC08B1A5
:1058800000F0A8FD6D1E6DB2002DF3DC4FF0FF3669
:1058900084F8456000F0BCFC00F09AFC94F9445098
:1058A00004F1100709E0206948B1384601F078FC9E
:1058B00008B100F08FFD6D1E6DB2002DF3DC84F891
:1058C0004460BDE8F04100F0A3BC00002DE9F041C8
:1058D0000546002700F0F8FE314E306808B9FFF7A2
:1058E00043FDF06805424BD1C5B3083568070ED0BB
:1058F00005F00700C0F108000544680707D05020F4
:1059000080F31188BFF34F8FBFF36F8FFEE72DB386
:105910007068854234D82248103001460C6801E096
:1059200020460C466168A94202D221680029F7D1BD
:1059300031688C4224D007682168016060680837AC
:10594000411B10290FD96019420708D0502080F35D
:105950001188BFF34F8FBFF36F8FFEE710E04160F8
:105960006560FFF7C9FD61687068401A7060B268D1
:10597000904200D2B060F06801430020C4E9000109
:1059800001F048FC780707D0502080F31188BFF35E
:105990004F8FBFF36F8FFEE73846BDE8F081000000
:1059A000A000002010B5031F4FF080741C601B1F67
:1059B00021F001011960191F024B0B6014394038A6
:1059C0000A6010BDCD5700082F4D86B04FF0FF364E
:1059D0000096002301222021A86900F01FFF800605
:1059E000F6D54FF47A7268466969FFF75DFA019C53
:1059F00026A094E80E00FEF70DFE0A2000F0A0FAA3
:105A0000D4E9000100F0CCFAA068286001F012FB94
:105A100002460A20009000230121286901F0A6FC1B
:105A2000286B00F0F3FD03A8FEF72EFF9DF8100091
:105A30009DF812209DF811108DE807009DF80E309A
:105A40009DF80D209DF80C10002000F08DF89DF8B9
:105A500010009DF812209DF811108DE807009DF8A8
:105A60000E309DF80D209DF80C10012000F07CF800
:105A70000D490020087021466869FFF70FFA286B6E
:105A800000F042FDA4E700000400002052756E20E3
:105A90005461736B20526563763A20256420256437
:105AA0002025640A00000000000000202DE9F843D2
:105AB0001546134689460A468046014613A0FEF75E
:105AC000A9FD194E64213068FFF7B3F9044640F28E
:105AD000CF7700232822194640460097FFF77AF92E
